{
  "_format": "hh-sol-artifact-1",
  "contractName": "TransactionLogger",
  "sourceName": "contracts/TransactionLogger.sol",
  "abi": [
    {
      "inputs": [
        {
          "internalType": "string",
          "name": "_loggedData",
          "type": "string"
        }
      ],
      "stateMutability": "nonpayable",
      "type": "constructor"
    },
    {
      "inputs": [],
      "name": "fetchLoggedData",
      "outputs": [
        {
          "internalType": "string",
          "name": "",
          "type": "string"
        }
      ],
      "stateMutability": "view",
      "type": "function"
    },
    {
      "inputs": [
        {
          "internalType": "string",
          "name": "_loggedData",
          "type": "string"
        }
      ],
      "name": "logData",
      "outputs": [],
      "stateMutability": "nonpayable",
      "type": "function"
    },
    {
      "stateMutability": "payable",
      "type": "receive"
    }
  ],
  "bytecode": "0x60806040523480156200001157600080fd5b5060405162000fae38038062000fae83398181016040528101906200003791906200033a565b6200007e6040518060400160405280601e81526020017f4465706c6f79696e672061205472616e73616374696f6e204c6f676765720000815250826200009760201b60201c565b80600090816200008f9190620005d6565b505062000779565b620001398282604051602401620000b09291906200070f565b6040516020818303038152906040527f4b5c4277000000000000000000000000000000000000000000000000000000007bffffffffffffffffffffffffffffffffffffffffffffffffffffffff19166020820180517bffffffffffffffffffffffffffffffffffffffffffffffffffffffff83818316178352505050506200013d60201b60201c565b5050565b62000163816200015e6200016660201b62000171176200018760201b60201c565b60201c565b50565b60006a636f6e736f6c652e6c6f679050600080835160208501845afa505050565b6200019b60201b6200025317819050919050565b620001a56200074a565b565b6000604051905090565b600080fd5b600080fd5b600080fd5b600080fd5b6000601f19601f8301169050919050565b7f4e487b7100000000000000000000000000000000000000000000000000000000600052604160045260246000fd5b6200021082620001c5565b810181811067ffffffffffffffff82111715620002325762000231620001d6565b5b80604052505050565b600062000247620001a7565b905062000255828262000205565b919050565b600067ffffffffffffffff821115620002785762000277620001d6565b5b6200028382620001c5565b9050602081019050919050565b60005b83811015620002b057808201518184015260208101905062000293565b60008484015250505050565b6000620002d3620002cd846200025a565b6200023b565b905082815260208101848484011115620002f257620002f1620001c0565b5b620002ff84828562000290565b509392505050565b600082601f8301126200031f576200031e620001bb565b5b815162000331848260208601620002bc565b91505092915050565b600060208284031215620003535762000352620001b1565b5b600082015167ffffffffffffffff811115620003745762000373620001b6565b5b620003828482850162000307565b91505092915050565b600081519050919050565b7f4e487b7100000000000000000000000000000000000000000000000000000000600052602260045260246000fd5b60006002820490506001821680620003de57607f821691505b602082108103620003f457620003f362000396565b5b50919050565b60008190508160005260206000209050919050565b60006020601f8301049050919050565b600082821b905092915050565b6000600883026200045e7fffffffffffffffffffffffffffffffffffffffffffffffffffffffffffffffff826200041f565b6200046a86836200041f565b95508019841693508086168417925050509392505050565b6000819050919050565b6000819050919050565b6000620004b7620004b1620004ab8462000482565b6200048c565b62000482565b9050919050565b6000819050919050565b620004d38362000496565b620004eb620004e282620004be565b8484546200042c565b825550505050565b600090565b62000502620004f3565b6200050f818484620004c8565b505050565b5b8181101562000537576200052b600082620004f8565b60018101905062000515565b5050565b601f82111562000586576200055081620003fa565b6200055b846200040f565b810160208510156200056b578190505b620005836200057a856200040f565b83018262000514565b50505b505050565b600082821c905092915050565b6000620005ab600019846008026200058b565b1980831691505092915050565b6000620005c6838362000598565b9150826002028217905092915050565b620005e1826200038b565b67ffffffffffffffff811115620005fd57620005fc620001d6565b5b620006098254620003c5565b620006168282856200053b565b600060209050601f8311600181146200064e576000841562000639578287015190505b620006458582620005b8565b865550620006b5565b601f1984166200065e86620003fa565b60005b82811015620006885784890151825560018201915060208501945060208101905062000661565b86831015620006a85784890151620006a4601f89168262000598565b8355505b6001600288020188555050505b505050505050565b600082825260208201905092915050565b6000620006db826200038b565b620006e78185620006bd565b9350620006f981856020860162000290565b6200070481620001c5565b840191505092915050565b600060408201905081810360008301526200072b8185620006ce565b90508181036020830152620007418184620006ce565b90509392505050565b7f4e487b7100000000000000000000000000000000000000000000000000000000600052605160045260246000fd5b61082580620007896000396000f3fe60806040526004361061002d5760003560e01c8063028fe8f7146100395780635c3f3e0c1461006457610034565b3661003457005b600080fd5b34801561004557600080fd5b5061004e61008d565b60405161005b91906102ed565b60405180910390f35b34801561007057600080fd5b5061008b60048036038101906100869190610458565b61011f565b005b60606000805461009c906104d0565b80601f01602080910402602001604051908101604052809291908181526020018280546100c8906104d0565b80156101155780601f106100ea57610100808354040283529160200191610115565b820191906000526020600020905b8154815290600101906020018083116100f857829003601f168201915b5050505050905090565b61015e6040518060400160405280600d81526020017f4c6f6767696e6720646174613a0000000000000000000000000000000000000081525082610192565b806000908161016d91906106b7565b5050565b60006a636f6e736f6c652e6c6f679050600080835160208501845afa505050565b61022a82826040516024016101a8929190610789565b6040516020818303038152906040527f4b5c4277000000000000000000000000000000000000000000000000000000007bffffffffffffffffffffffffffffffffffffffffffffffffffffffff19166020820180517bffffffffffffffffffffffffffffffffffffffffffffffffffffffff838183161783525050505061022e565b5050565b6102458161023d610171610248565b63ffffffff16565b50565b610253819050919050565b61025b6107c0565b565b600081519050919050565b600082825260208201905092915050565b60005b8381101561029757808201518184015260208101905061027c565b60008484015250505050565b6000601f19601f8301169050919050565b60006102bf8261025d565b6102c98185610268565b93506102d9818560208601610279565b6102e2816102a3565b840191505092915050565b6000602082019050818103600083015261030781846102b4565b905092915050565b6000604051905090565b600080fd5b600080fd5b600080fd5b600080fd5b7f4e487b7100000000000000000000000000000000000000000000000000000000600052604160045260246000fd5b610365826102a3565b810181811067ffffffffffffffff821117156103845761038361032d565b5b80604052505050565b600061039761030f565b90506103a3828261035c565b919050565b600067ffffffffffffffff8211156103c3576103c261032d565b5b6103cc826102a3565b9050602081019050919050565b82818337600083830152505050565b60006103fb6103f6846103a8565b61038d565b90508281526020810184848401111561041757610416610328565b5b6104228482856103d9565b509392505050565b600082601f83011261043f5761043e610323565b5b813561044f8482602086016103e8565b91505092915050565b60006020828403121561046e5761046d610319565b5b600082013567ffffffffffffffff81111561048c5761048b61031e565b5b6104988482850161042a565b91505092915050565b7f4e487b7100000000000000000000000000000000000000000000000000000000600052602260045260246000fd5b600060028204905060018216806104e857607f821691505b6020821081036104fb576104fa6104a1565b5b50919050565b60008190508160005260206000209050919050565b60006020601f8301049050919050565b600082821b905092915050565b6000600883026105637fffffffffffffffffffffffffffffffffffffffffffffffffffffffffffffffff82610526565b61056d8683610526565b95508019841693508086168417925050509392505050565b6000819050919050565b6000819050919050565b60006105b46105af6105aa84610585565b61058f565b610585565b9050919050565b6000819050919050565b6105ce83610599565b6105e26105da826105bb565b848454610533565b825550505050565b600090565b6105f76105ea565b6106028184846105c5565b505050565b5b818110156106265761061b6000826105ef565b600181019050610608565b5050565b601f82111561066b5761063c81610501565b61064584610516565b81016020851015610654578190505b61066861066085610516565b830182610607565b50505b505050565b600082821c905092915050565b600061068e60001984600802610670565b1980831691505092915050565b60006106a7838361067d565b9150826002028217905092915050565b6106c08261025d565b67ffffffffffffffff8111156106d9576106d861032d565b5b6106e382546104d0565b6106ee82828561062a565b600060209050601f831160018114610721576000841561070f578287015190505b610719858261069b565b865550610781565b601f19841661072f86610501565b60005b8281101561075757848901518255600182019150602085019450602081019050610732565b868310156107745784890151610770601f89168261067d565b8355505b6001600288020188555050505b505050505050565b600060408201905081810360008301526107a381856102b4565b905081810360208301526107b781846102b4565b90509392505050565b7f4e487b7100000000000000000000000000000000000000000000000000000000600052605160045260246000fdfea264697066735822122055d097a97bacd9291c9cca9fc29eee6630a7c083c69efefb604baa8ec89f37ea64736f6c63430008130033",
  "linkReferences": {},
  "deployedLinkReferences": {}
}